{
  "_format": "hh-sol-artifact-1",
  "contractName": "FiredGuys",
  "sourceName": "contracts/MyNFT.sol",
  "abi": [
    {
      "inputs": [],
      "stateMutability": "nonpayable",
      "type": "constructor"
    },
    {
      "anonymous": false,
      "inputs": [
        {
          "indexed": true,
          "internalType": "address",
          "name": "owner",
          "type": "address"
        },
        {
          "indexed": true,
          "internalType": "address",
          "name": "approved",
          "type": "address"
        },
        {
          "indexed": true,
          "internalType": "uint256",
          "name": "tokenId",
          "type": "uint256"
        }
      ],
      "name": "Approval",
      "type": "event"
    },
    {
      "anonymous": false,
      "inputs": [
        {
          "indexed": true,
          "internalType": "address",
          "name": "owner",
          "type": "address"
        },
        {
          "indexed": true,
          "internalType": "address",
          "name": "operator",
          "type": "address"
        },
        {
          "indexed": false,
          "internalType": "bool",
          "name": "approved",
          "type": "bool"
        }
      ],
      "name": "ApprovalForAll",
      "type": "event"
    },
    {
      "anonymous": false,
      "inputs": [
        {
          "indexed": true,
          "internalType": "address",
          "name": "previousOwner",
          "type": "address"
        },
        {
          "indexed": true,
          "internalType": "address",
          "name": "newOwner",
          "type": "address"
        }
      ],
      "name": "OwnershipTransferred",
      "type": "event"
    },
    {
      "anonymous": false,
      "inputs": [
        {
          "indexed": true,
          "internalType": "address",
          "name": "from",
          "type": "address"
        },
        {
          "indexed": true,
          "internalType": "address",
          "name": "to",
          "type": "address"
        },
        {
          "indexed": true,
          "internalType": "uint256",
          "name": "tokenId",
          "type": "uint256"
        }
      ],
      "name": "Transfer",
      "type": "event"
    },
    {
      "inputs": [
        {
          "internalType": "address",
          "name": "to",
          "type": "address"
        },
        {
          "internalType": "uint256",
          "name": "tokenId",
          "type": "uint256"
        }
      ],
      "name": "approve",
      "outputs": [],
      "stateMutability": "nonpayable",
      "type": "function"
    },
    {
      "inputs": [
        {
          "internalType": "address",
          "name": "owner",
          "type": "address"
        }
      ],
      "name": "balanceOf",
      "outputs": [
        {
          "internalType": "uint256",
          "name": "",
          "type": "uint256"
        }
      ],
      "stateMutability": "view",
      "type": "function"
    },
    {
      "inputs": [],
      "name": "count",
      "outputs": [
        {
          "internalType": "uint256",
          "name": "",
          "type": "uint256"
        }
      ],
      "stateMutability": "view",
      "type": "function"
    },
    {
      "inputs": [],
      "name": "getAllTransactions",
      "outputs": [
        {
          "components": [
            {
              "internalType": "address",
              "name": "sender",
              "type": "address"
            },
            {
              "internalType": "uint256",
              "name": "amount",
              "type": "uint256"
            },
            {
              "internalType": "string",
              "name": "message",
              "type": "string"
            },
            {
              "internalType": "uint256",
              "name": "timestamp",
              "type": "uint256"
            },
            {
              "internalType": "string",
              "name": "keyword",
              "type": "string"
            }
          ],
          "internalType": "struct FiredGuys.TransferStruct[]",
          "name": "",
          "type": "tuple[]"
        }
      ],
      "stateMutability": "view",
      "type": "function"
    },
    {
      "inputs": [
        {
          "internalType": "uint256",
          "name": "tokenId",
          "type": "uint256"
        }
      ],
      "name": "getApproved",
      "outputs": [
        {
          "internalType": "address",
          "name": "",
          "type": "address"
        }
      ],
      "stateMutability": "view",
      "type": "function"
    },
    {
      "inputs": [
        {
          "internalType": "address",
          "name": "owner",
          "type": "address"
        },
        {
          "internalType": "address",
          "name": "operator",
          "type": "address"
        }
      ],
      "name": "isApprovedForAll",
      "outputs": [
        {
          "internalType": "bool",
          "name": "",
          "type": "bool"
        }
      ],
      "stateMutability": "view",
      "type": "function"
    },
    {
      "inputs": [
        {
          "internalType": "string",
          "name": "uri",
          "type": "string"
        }
      ],
      "name": "isContentOwned",
      "outputs": [
        {
          "internalType": "bool",
          "name": "",
          "type": "bool"
        }
      ],
      "stateMutability": "view",
      "type": "function"
    },
    {
      "inputs": [],
      "name": "name",
      "outputs": [
        {
          "internalType": "string",
          "name": "",
          "type": "string"
        }
      ],
      "stateMutability": "view",
      "type": "function"
    },
    {
      "inputs": [],
      "name": "owner",
      "outputs": [
        {
          "internalType": "address",
          "name": "",
          "type": "address"
        }
      ],
      "stateMutability": "view",
      "type": "function"
    },
    {
      "inputs": [
        {
          "internalType": "uint256",
          "name": "tokenId",
          "type": "uint256"
        }
      ],
      "name": "ownerOf",
      "outputs": [
        {
          "internalType": "address",
          "name": "",
          "type": "address"
        }
      ],
      "stateMutability": "view",
      "type": "function"
    },
    {
      "inputs": [
        {
          "internalType": "address",
          "name": "recipient",
          "type": "address"
        },
        {
          "internalType": "string",
          "name": "metadataURI",
          "type": "string"
        },
        {
          "internalType": "string",
          "name": "message",
          "type": "string"
        },
        {
          "internalType": "string",
          "name": "keyword",
          "type": "string"
        }
      ],
      "name": "payToMint",
      "outputs": [
        {
          "internalType": "uint256",
          "name": "",
          "type": "uint256"
        }
      ],
      "stateMutability": "payable",
      "type": "function"
    },
    {
      "inputs": [],
      "name": "renounceOwnership",
      "outputs": [],
      "stateMutability": "nonpayable",
      "type": "function"
    },
    {
      "inputs": [
        {
          "internalType": "address",
          "name": "to",
          "type": "address"
        },
        {
          "internalType": "string",
          "name": "uri",
          "type": "string"
        }
      ],
      "name": "safeMint",
      "outputs": [],
      "stateMutability": "nonpayable",
      "type": "function"
    },
    {
      "inputs": [
        {
          "internalType": "address",
          "name": "from",
          "type": "address"
        },
        {
          "internalType": "address",
          "name": "to",
          "type": "address"
        },
        {
          "internalType": "uint256",
          "name": "tokenId",
          "type": "uint256"
        }
      ],
      "name": "safeTransferFrom",
      "outputs": [],
      "stateMutability": "nonpayable",
      "type": "function"
    },
    {
      "inputs": [
        {
          "internalType": "address",
          "name": "from",
          "type": "address"
        },
        {
          "internalType": "address",
          "name": "to",
          "type": "address"
        },
        {
          "internalType": "uint256",
          "name": "tokenId",
          "type": "uint256"
        },
        {
          "internalType": "bytes",
          "name": "_data",
          "type": "bytes"
        }
      ],
      "name": "safeTransferFrom",
      "outputs": [],
      "stateMutability": "nonpayable",
      "type": "function"
    },
    {
      "inputs": [
        {
          "internalType": "address",
          "name": "operator",
          "type": "address"
        },
        {
          "internalType": "bool",
          "name": "approved",
          "type": "bool"
        }
      ],
      "name": "setApprovalForAll",
      "outputs": [],
      "stateMutability": "nonpayable",
      "type": "function"
    },
    {
      "inputs": [
        {
          "internalType": "bytes4",
          "name": "interfaceId",
          "type": "bytes4"
        }
      ],
      "name": "supportsInterface",
      "outputs": [
        {
          "internalType": "bool",
          "name": "",
          "type": "bool"
        }
      ],
      "stateMutability": "view",
      "type": "function"
    },
    {
      "inputs": [],
      "name": "symbol",
      "outputs": [
        {
          "internalType": "string",
          "name": "",
          "type": "string"
        }
      ],
      "stateMutability": "view",
      "type": "function"
    },
    {
      "inputs": [
        {
          "internalType": "uint256",
          "name": "tokenId",
          "type": "uint256"
        }
      ],
      "name": "tokenURI",
      "outputs": [
        {
          "internalType": "string",
          "name": "",
          "type": "string"
        }
      ],
      "stateMutability": "view",
      "type": "function"
    },
    {
      "inputs": [
        {
          "internalType": "address",
          "name": "from",
          "type": "address"
        },
        {
          "internalType": "address",
          "name": "to",
          "type": "address"
        },
        {
          "internalType": "uint256",
          "name": "tokenId",
          "type": "uint256"
        }
      ],
      "name": "transferFrom",
      "outputs": [],
      "stateMutability": "nonpayable",
      "type": "function"
    },
    {
      "inputs": [
        {
          "internalType": "address",
          "name": "newOwner",
          "type": "address"
        }
      ],
      "name": "transferOwnership",
      "outputs": [],
      "stateMutability": "nonpayable",
      "type": "function"
    }
  ],
  "bytecode": "0x60806040523480156200001157600080fd5b506040518060400160405280600981526020017f46697265644775797300000000000000000000000000000000000000000000008152506040518060400160405280600381526020017f4659520000000000000000000000000000000000000000000000000000000000815250816000908051906020019062000096929190620001a6565b508060019080519060200190620000af929190620001a6565b505050620000d2620000c6620000d860201b60201c565b620000e060201b60201c565b620002bb565b600033905090565b6000600760009054906101000a900473ffffffffffffffffffffffffffffffffffffffff16905081600760006101000a81548173ffffffffffffffffffffffffffffffffffffffff021916908373ffffffffffffffffffffffffffffffffffffffff1602179055508173ffffffffffffffffffffffffffffffffffffffff168173ffffffffffffffffffffffffffffffffffffffff167f8be0079c531659141344cd1fd0a4f28419497f9722a3daafe3b4186f6b6457e060405160405180910390a35050565b828054620001b49062000256565b90600052602060002090601f016020900481019282620001d8576000855562000224565b82601f10620001f357805160ff191683800117855562000224565b8280016001018555821562000224579182015b828111156200022357825182559160200191906001019062000206565b5b50905062000233919062000237565b5090565b5b808211156200025257600081600090555060010162000238565b5090565b600060028204905060018216806200026f57607f821691505b602082108114156200028657620002856200028c565b5b50919050565b7f4e487b7100000000000000000000000000000000000000000000000000000000600052602260045260246000fd5b613a8080620002cb6000396000f3fe60806040526004361061012a5760003560e01c806370a08231116100ab578063a22cb4651161006f578063a22cb465146103f9578063b88d4fde14610422578063c87b56dd1461044b578063d204c45e14610488578063e985e9c5146104b1578063f2fde38b146104ee5761012a565b806370a0823114610312578063715018a61461034f5780638da5cb5b1461036657806395d89b41146103915780639f1cabc6146103bc5761012a565b806323b872dd116100f257806323b872dd1461022857806327506f531461025157806329fd2d771461027c57806342842e0e146102ac5780636352211e146102d55761012a565b806301ffc9a71461012f57806306661abd1461016c57806306fdde0314610197578063081812fc146101c2578063095ea7b3146101ff575b600080fd5b34801561013b57600080fd5b5061015660048036038101906101519190612736565b610517565b6040516101639190612d9f565b60405180910390f35b34801561017857600080fd5b506101816105f9565b60405161018e919061305c565b60405180910390f35b3480156101a357600080fd5b506101ac61060a565b6040516101b99190612dba565b60405180910390f35b3480156101ce57600080fd5b506101e960048036038101906101e491906127c9565b61069c565b6040516101f69190612d16565b60405180910390f35b34801561020b57600080fd5b50610226600480360381019061022191906126fa565b610721565b005b34801561023457600080fd5b5061024f600480360381019061024a91906124f5565b610839565b005b34801561025d57600080fd5b50610266610899565b6040516102739190612d7d565b60405180910390f35b6102966004803603810190610291919061264f565b610a86565b6040516102a3919061305c565b60405180910390f35b3480156102b857600080fd5b506102d360048036038101906102ce91906124f5565b610cb3565b005b3480156102e157600080fd5b506102fc60048036038101906102f791906127c9565b610cd3565b6040516103099190612d16565b60405180910390f35b34801561031e57600080fd5b5061033960048036038101906103349190612490565b610d85565b604051610346919061305c565b60405180910390f35b34801561035b57600080fd5b50610364610e3d565b005b34801561037257600080fd5b5061037b610ec5565b6040516103889190612d16565b60405180910390f35b34801561039d57600080fd5b506103a6610eef565b6040516103b39190612dba565b60405180910390f35b3480156103c857600080fd5b506103e360048036038101906103de9190612788565b610f81565b6040516103f09190612d9f565b60405180910390f35b34801561040557600080fd5b50610420600480360381019061041b91906125bf565b610fbc565b005b34801561042e57600080fd5b5061044960048036038101906104449190612544565b610fd2565b005b34801561045757600080fd5b50610472600480360381019061046d91906127c9565b611034565b60405161047f9190612dba565b60405180910390f35b34801561049457600080fd5b506104af60048036038101906104aa91906125fb565b611046565b005b3480156104bd57600080fd5b506104d860048036038101906104d391906124b9565b61112b565b6040516104e59190612d9f565b60405180910390f35b3480156104fa57600080fd5b5061051560048036038101906105109190612490565b6111bf565b005b60007f80ac58cd000000000000000000000000000000000000000000000000000000007bffffffffffffffffffffffffffffffffffffffffffffffffffffffff1916827bffffffffffffffffffffffffffffffffffffffffffffffffffffffff191614806105e257507f5b5e139f000000000000000000000000000000000000000000000000000000007bffffffffffffffffffffffffffffffffffffffffffffffffffffffff1916827bffffffffffffffffffffffffffffffffffffffffffffffffffffffff1916145b806105f257506105f1826112b7565b5b9050919050565b60006106056009611321565b905090565b606060008054610619906132fc565b80601f0160208091040260200160405190810160405280929190818152602001828054610645906132fc565b80156106925780601f1061066757610100808354040283529160200191610692565b820191906000526020600020905b81548152906001019060200180831161067557829003601f168201915b5050505050905090565b60006106a78261132f565b6106e6576040517f08c379a00000000000000000000000000000000000000000000000000000000081526004016106dd90612f7c565b60405180910390fd5b6004600083815260200190815260200160002060009054906101000a900473ffffffffffffffffffffffffffffffffffffffff169050919050565b600061072c82610cd3565b90508073ffffffffffffffffffffffffffffffffffffffff168373ffffffffffffffffffffffffffffffffffffffff16141561079d576040517f08c379a000000000000000000000000000000000000000000000000000000000815260040161079490612fdc565b60405180910390fd5b8073ffffffffffffffffffffffffffffffffffffffff166107bc61139b565b73ffffffffffffffffffffffffffffffffffffffff1614806107eb57506107ea816107e561139b565b61112b565b5b61082a576040517f08c379a000000000000000000000000000000000000000000000000000000000815260040161082190612ebc565b60405180910390fd5b61083483836113a3565b505050565b61084a61084461139b565b8261145c565b610889576040517f08c379a000000000000000000000000000000000000000000000000000000000815260040161088090612ffc565b60405180910390fd5b61089483838361153a565b505050565b60606008805480602002602001604051908101604052809291908181526020016000905b82821015610a7d57838290600052602060002090600502016040518060a00160405290816000820160009054906101000a900473ffffffffffffffffffffffffffffffffffffffff1673ffffffffffffffffffffffffffffffffffffffff1673ffffffffffffffffffffffffffffffffffffffff16815260200160018201548152602001600282018054610950906132fc565b80601f016020809104026020016040519081016040528092919081815260200182805461097c906132fc565b80156109c95780601f1061099e576101008083540402835291602001916109c9565b820191906000526020600020905b8154815290600101906020018083116109ac57829003601f168201915b50505050508152602001600382015481526020016004820180546109ec906132fc565b80601f0160208091040260200160405190810160405280929190818152602001828054610a18906132fc565b8015610a655780601f10610a3a57610100808354040283529160200191610a65565b820191906000526020600020905b815481529060010190602001808311610a4857829003601f168201915b505050505081525050815260200190600101906108bd565b50505050905090565b60006001600a85604051610a9a9190612cdb565b908152602001604051809103902060009054906101000a900460ff1660ff161415610afa576040517f08c379a0000000000000000000000000000000000000000000000000000000008152600401610af19061301c565b60405180910390fd5b66b1a2bc2ec50000341015610b44576040517f08c379a0000000000000000000000000000000000000000000000000000000008152600401610b3b9061303c565b60405180910390fd5b6000610b506009611321565b9050610b5c60096117a1565b6001600a86604051610b6e9190612cdb565b908152602001604051809103902060006101000a81548160ff021916908360ff16021790555060086040518060a001604052803373ffffffffffffffffffffffffffffffffffffffff16815260200134815260200186815260200142815260200185815250908060018154018082558091505060019003906000526020600020906005020160009091909190915060008201518160000160006101000a81548173ffffffffffffffffffffffffffffffffffffffff021916908373ffffffffffffffffffffffffffffffffffffffff160217905550602082015181600101556040820151816002019080519060200190610c699291906122b4565b50606082015181600301556080820151816004019080519060200190610c909291906122b4565b505050610c9d86826117b7565b610ca78186611991565b80915050949350505050565b610cce83838360405180602001604052806000815250610fd2565b505050565b6000806002600084815260200190815260200160002060009054906101000a900473ffffffffffffffffffffffffffffffffffffffff169050600073ffffffffffffffffffffffffffffffffffffffff168173ffffffffffffffffffffffffffffffffffffffff161415610d7c576040517f08c379a0000000000000000000000000000000000000000000000000000000008152600401610d7390612efc565b60405180910390fd5b80915050919050565b60008073ffffffffffffffffffffffffffffffffffffffff168273ffffffffffffffffffffffffffffffffffffffff161415610df6576040517f08c379a0000000000000000000000000000000000000000000000000000000008152600401610ded90612edc565b60405180910390fd5b600360008373ffffffffffffffffffffffffffffffffffffffff1673ffffffffffffffffffffffffffffffffffffffff168152602001908152602001600020549050919050565b610e4561139b565b73ffffffffffffffffffffffffffffffffffffffff16610e63610ec5565b73ffffffffffffffffffffffffffffffffffffffff1614610eb9576040517f08c379a0000000000000000000000000000000000000000000000000000000008152600401610eb090612f9c565b60405180910390fd5b610ec36000611a05565b565b6000600760009054906101000a900473ffffffffffffffffffffffffffffffffffffffff16905090565b606060018054610efe906132fc565b80601f0160208091040260200160405190810160405280929190818152602001828054610f2a906132fc565b8015610f775780601f10610f4c57610100808354040283529160200191610f77565b820191906000526020600020905b815481529060010190602001808311610f5a57829003601f168201915b5050505050905090565b60006001600a83604051610f959190612cdb565b908152602001604051809103902060009054906101000a900460ff1660ff16149050919050565b610fce610fc761139b565b8383611acb565b5050565b610fe3610fdd61139b565b8361145c565b611022576040517f08c379a000000000000000000000000000000000000000000000000000000000815260040161101990612ffc565b60405180910390fd5b61102e84848484611c38565b50505050565b606061103f82611c94565b9050919050565b61104e61139b565b73ffffffffffffffffffffffffffffffffffffffff1661106c610ec5565b73ffffffffffffffffffffffffffffffffffffffff16146110c2576040517f08c379a00000000000000000000000000000000000000000000000000000000081526004016110b990612f9c565b60405180910390fd5b60006110ce6009611321565b90506110da60096117a1565b6110e48382611de6565b6110ee8183611991565b6001600a836040516111009190612cdb565b908152602001604051809103902060006101000a81548160ff021916908360ff160217905550505050565b6000600560008473ffffffffffffffffffffffffffffffffffffffff1673ffffffffffffffffffffffffffffffffffffffff16815260200190815260200160002060008373ffffffffffffffffffffffffffffffffffffffff1673ffffffffffffffffffffffffffffffffffffffff16815260200190815260200160002060009054906101000a900460ff16905092915050565b6111c761139b565b73ffffffffffffffffffffffffffffffffffffffff166111e5610ec5565b73ffffffffffffffffffffffffffffffffffffffff161461123b576040517f08c379a000000000000000000000000000000000000000000000000000000000815260040161123290612f9c565b60405180910390fd5b600073ffffffffffffffffffffffffffffffffffffffff168173ffffffffffffffffffffffffffffffffffffffff1614156112ab576040517f08c379a00000000000000000000000000000000000000000000000000000000081526004016112a290612dfc565b60405180910390fd5b6112b481611a05565b50565b60007f01ffc9a7000000000000000000000000000000000000000000000000000000007bffffffffffffffffffffffffffffffffffffffffffffffffffffffff1916827bffffffffffffffffffffffffffffffffffffffffffffffffffffffff1916149050919050565b600081600001549050919050565b60008073ffffffffffffffffffffffffffffffffffffffff166002600084815260200190815260200160002060009054906101000a900473ffffffffffffffffffffffffffffffffffffffff1673ffffffffffffffffffffffffffffffffffffffff1614159050919050565b600033905090565b816004600083815260200190815260200160002060006101000a81548173ffffffffffffffffffffffffffffffffffffffff021916908373ffffffffffffffffffffffffffffffffffffffff160217905550808273ffffffffffffffffffffffffffffffffffffffff1661141683610cd3565b73ffffffffffffffffffffffffffffffffffffffff167f8c5be1e5ebec7d5bd14f71427d1e84f3dd0314c0f7b2291e5b200ac8c7c3b92560405160405180910390a45050565b60006114678261132f565b6114a6576040517f08c379a000000000000000000000000000000000000000000000000000000000815260040161149d90612e9c565b60405180910390fd5b60006114b183610cd3565b90508073ffffffffffffffffffffffffffffffffffffffff168473ffffffffffffffffffffffffffffffffffffffff16148061152057508373ffffffffffffffffffffffffffffffffffffffff166115088461069c565b73ffffffffffffffffffffffffffffffffffffffff16145b806115315750611530818561112b565b5b91505092915050565b8273ffffffffffffffffffffffffffffffffffffffff1661155a82610cd3565b73ffffffffffffffffffffffffffffffffffffffff16146115b0576040517f08c379a00000000000000000000000000000000000000000000000000000000081526004016115a790612e1c565b60405180910390fd5b600073ffffffffffffffffffffffffffffffffffffffff168273ffffffffffffffffffffffffffffffffffffffff161415611620576040517f08c379a000000000000000000000000000000000000000000000000000000000815260040161161790612e5c565b60405180910390fd5b61162b838383611e04565b6116366000826113a3565b6001600360008573ffffffffffffffffffffffffffffffffffffffff1673ffffffffffffffffffffffffffffffffffffffff16815260200190815260200160002060008282546116869190613212565b925050819055506001600360008473ffffffffffffffffffffffffffffffffffffffff1673ffffffffffffffffffffffffffffffffffffffff16815260200190815260200160002060008282546116dd919061318b565b92505081905550816002600083815260200190815260200160002060006101000a81548173ffffffffffffffffffffffffffffffffffffffff021916908373ffffffffffffffffffffffffffffffffffffffff160217905550808273ffffffffffffffffffffffffffffffffffffffff168473ffffffffffffffffffffffffffffffffffffffff167fddf252ad1be2c89b69c2b068fc378daa952ba7f163c4a11628f55a4df523b3ef60405160405180910390a461179c838383611e09565b505050565b6001816000016000828254019250508190555050565b600073ffffffffffffffffffffffffffffffffffffffff168273ffffffffffffffffffffffffffffffffffffffff161415611827576040517f08c379a000000000000000000000000000000000000000000000000000000000815260040161181e90612f3c565b60405180910390fd5b6118308161132f565b15611870576040517f08c379a000000000000000000000000000000000000000000000000000000000815260040161186790612e3c565b60405180910390fd5b61187c60008383611e04565b6001600360008473ffffffffffffffffffffffffffffffffffffffff1673ffffffffffffffffffffffffffffffffffffffff16815260200190815260200160002060008282546118cc919061318b565b92505081905550816002600083815260200190815260200160002060006101000a81548173ffffffffffffffffffffffffffffffffffffffff021916908373ffffffffffffffffffffffffffffffffffffffff160217905550808273ffffffffffffffffffffffffffffffffffffffff16600073ffffffffffffffffffffffffffffffffffffffff167fddf252ad1be2c89b69c2b068fc378daa952ba7f163c4a11628f55a4df523b3ef60405160405180910390a461198d60008383611e09565b5050565b61199a8261132f565b6119d9576040517f08c379a00000000000000000000000000000000000000000000000000000000081526004016119d090612f1c565b60405180910390fd5b80600660008481526020019081526020016000209080519060200190611a009291906122b4565b505050565b6000600760009054906101000a900473ffffffffffffffffffffffffffffffffffffffff16905081600760006101000a81548173ffffffffffffffffffffffffffffffffffffffff021916908373ffffffffffffffffffffffffffffffffffffffff1602179055508173ffffffffffffffffffffffffffffffffffffffff168173ffffffffffffffffffffffffffffffffffffffff167f8be0079c531659141344cd1fd0a4f28419497f9722a3daafe3b4186f6b6457e060405160405180910390a35050565b8173ffffffffffffffffffffffffffffffffffffffff168373ffffffffffffffffffffffffffffffffffffffff161415611b3a576040517f08c379a0000000000000000000000000000000000000000000000000000000008152600401611b3190612e7c565b60405180910390fd5b80600560008573ffffffffffffffffffffffffffffffffffffffff1673ffffffffffffffffffffffffffffffffffffffff16815260200190815260200160002060008473ffffffffffffffffffffffffffffffffffffffff1673ffffffffffffffffffffffffffffffffffffffff16815260200190815260200160002060006101000a81548160ff0219169083151502179055508173ffffffffffffffffffffffffffffffffffffffff168373ffffffffffffffffffffffffffffffffffffffff167f17307eab39ab6107e8899845ad3d59bd9653f200f220920489ca2b5937696c3183604051611c2b9190612d9f565b60405180910390a3505050565b611c4384848461153a565b611c4f84848484611e0e565b611c8e576040517f08c379a0000000000000000000000000000000000000000000000000000000008152600401611c8590612ddc565b60405180910390fd5b50505050565b6060611c9f8261132f565b611cde576040517f08c379a0000000000000000000000000000000000000000000000000000000008152600401611cd590612f5c565b60405180910390fd5b6000600660008481526020019081526020016000208054611cfe906132fc565b80601f0160208091040260200160405190810160405280929190818152602001828054611d2a906132fc565b8015611d775780601f10611d4c57610100808354040283529160200191611d77565b820191906000526020600020905b815481529060010190602001808311611d5a57829003601f168201915b505050505090506000611d88611fa5565b9050600081511415611d9e578192505050611de1565b600082511115611dd3578082604051602001611dbb929190612cf2565b60405160208183030381529060405292505050611de1565b611ddc84611fe2565b925050505b919050565b611e00828260405180602001604052806000815250612089565b5050565b505050565b505050565b6000611e2f8473ffffffffffffffffffffffffffffffffffffffff166120e4565b15611f98578373ffffffffffffffffffffffffffffffffffffffff1663150b7a02611e5861139b565b8786866040518563ffffffff1660e01b8152600401611e7a9493929190612d31565b602060405180830381600087803b158015611e9457600080fd5b505af1925050508015611ec557506040513d601f19601f82011682018060405250810190611ec2919061275f565b60015b611f48573d8060008114611ef5576040519150601f19603f3d011682016040523d82523d6000602084013e611efa565b606091505b50600081511415611f40576040517f08c379a0000000000000000000000000000000000000000000000000000000008152600401611f3790612ddc565b60405180910390fd5b805181602001fd5b63150b7a0260e01b7bffffffffffffffffffffffffffffffffffffffffffffffffffffffff1916817bffffffffffffffffffffffffffffffffffffffffffffffffffffffff191614915050611f9d565b600190505b949350505050565b60606040518060400160405280600781526020017f697066733a2f2f00000000000000000000000000000000000000000000000000815250905090565b6060611fed8261132f565b61202c576040517f08c379a000000000000000000000000000000000000000000000000000000000815260040161202390612fbc565b60405180910390fd5b6000612036611fa5565b905060008151116120565760405180602001604052806000815250612081565b8061206084612107565b604051602001612071929190612cf2565b6040516020818303038152906040525b915050919050565b61209383836117b7565b6120a06000848484611e0e565b6120df576040517f08c379a00000000000000000000000000000000000000000000000000000000081526004016120d690612ddc565b60405180910390fd5b505050565b6000808273ffffffffffffffffffffffffffffffffffffffff163b119050919050565b6060600082141561214f576040518060400160405280600181526020017f300000000000000000000000000000000000000000000000000000000000000081525090506122af565b600082905060005b6000821461218157808061216a9061335f565b915050600a8261217a91906131e1565b9150612157565b60008167ffffffffffffffff8111156121c3577f4e487b7100000000000000000000000000000000000000000000000000000000600052604160045260246000fd5b6040519080825280601f01601f1916602001820160405280156121f55781602001600182028036833780820191505090505b5090505b600085146122a85760018261220e9190613212565b9150600a8561221d91906133a8565b6030612229919061318b565b60f81b818381518110612265577f4e487b7100000000000000000000000000000000000000000000000000000000600052603260045260246000fd5b60200101907effffffffffffffffffffffffffffffffffffffffffffffffffffffffffffff1916908160001a905350600a856122a191906131e1565b94506121f9565b8093505050505b919050565b8280546122c0906132fc565b90600052602060002090601f0160209004810192826122e25760008555612329565b82601f106122fb57805160ff1916838001178555612329565b82800160010185558215612329579182015b8281111561232857825182559160200191906001019061230d565b5b509050612336919061233a565b5090565b5b8082111561235357600081600090555060010161233b565b5090565b600061236a6123658461309c565b613077565b90508281526020810184848401111561238257600080fd5b61238d8482856132ba565b509392505050565b60006123a86123a3846130cd565b613077565b9050828152602081018484840111156123c057600080fd5b6123cb8482856132ba565b509392505050565b6000813590506123e2816139ee565b92915050565b6000813590506123f781613a05565b92915050565b60008135905061240c81613a1c565b92915050565b60008151905061242181613a1c565b92915050565b600082601f83011261243857600080fd5b8135612448848260208601612357565b91505092915050565b600082601f83011261246257600080fd5b8135612472848260208601612395565b91505092915050565b60008135905061248a81613a33565b92915050565b6000602082840312156124a257600080fd5b60006124b0848285016123d3565b91505092915050565b600080604083850312156124cc57600080fd5b60006124da858286016123d3565b92505060206124eb858286016123d3565b9150509250929050565b60008060006060848603121561250a57600080fd5b6000612518868287016123d3565b9350506020612529868287016123d3565b925050604061253a8682870161247b565b9150509250925092565b6000806000806080858703121561255a57600080fd5b6000612568878288016123d3565b9450506020612579878288016123d3565b935050604061258a8782880161247b565b925050606085013567ffffffffffffffff8111156125a757600080fd5b6125b387828801612427565b91505092959194509250565b600080604083850312156125d257600080fd5b60006125e0858286016123d3565b92505060206125f1858286016123e8565b9150509250929050565b6000806040838503121561260e57600080fd5b600061261c858286016123d3565b925050602083013567ffffffffffffffff81111561263957600080fd5b61264585828601612451565b9150509250929050565b6000806000806080858703121561266557600080fd5b6000612673878288016123d3565b945050602085013567ffffffffffffffff81111561269057600080fd5b61269c87828801612451565b935050604085013567ffffffffffffffff8111156126b957600080fd5b6126c587828801612451565b925050606085013567ffffffffffffffff8111156126e257600080fd5b6126ee87828801612451565b91505092959194509250565b6000806040838503121561270d57600080fd5b600061271b858286016123d3565b925050602061272c8582860161247b565b9150509250929050565b60006020828403121561274857600080fd5b6000612756848285016123fd565b91505092915050565b60006020828403121561277157600080fd5b600061277f84828501612412565b91505092915050565b60006020828403121561279a57600080fd5b600082013567ffffffffffffffff8111156127b457600080fd5b6127c084828501612451565b91505092915050565b6000602082840312156127db57600080fd5b60006127e98482850161247b565b91505092915050565b60006127fe8383612c40565b905092915050565b61280f81613246565b82525050565b61281e81613246565b82525050565b600061282f8261310e565b612839818561313c565b93508360208202850161284b856130fe565b8060005b85811015612887578484038952815161286885826127f2565b94506128738361312f565b925060208a0199505060018101905061284f565b50829750879550505050505092915050565b6128a281613258565b82525050565b60006128b382613119565b6128bd818561314d565b93506128cd8185602086016132c9565b6128d681613495565b840191505092915050565b60006128ec82613124565b6128f6818561315e565b93506129068185602086016132c9565b61290f81613495565b840191505092915050565b600061292582613124565b61292f818561316f565b935061293f8185602086016132c9565b61294881613495565b840191505092915050565b600061295e82613124565b6129688185613180565b93506129788185602086016132c9565b80840191505092915050565b600061299160328361316f565b915061299c826134a6565b604082019050919050565b60006129b460268361316f565b91506129bf826134f5565b604082019050919050565b60006129d760258361316f565b91506129e282613544565b604082019050919050565b60006129fa601c8361316f565b9150612a0582613593565b602082019050919050565b6000612a1d60248361316f565b9150612a28826135bc565b604082019050919050565b6000612a4060198361316f565b9150612a4b8261360b565b602082019050919050565b6000612a63602c8361316f565b9150612a6e82613634565b604082019050919050565b6000612a8660388361316f565b9150612a9182613683565b604082019050919050565b6000612aa9602a8361316f565b9150612ab4826136d2565b604082019050919050565b6000612acc60298361316f565b9150612ad782613721565b604082019050919050565b6000612aef602e8361316f565b9150612afa82613770565b604082019050919050565b6000612b1260208361316f565b9150612b1d826137bf565b602082019050919050565b6000612b3560318361316f565b9150612b40826137e8565b604082019050919050565b6000612b58602c8361316f565b9150612b6382613837565b604082019050919050565b6000612b7b60208361316f565b9150612b8682613886565b602082019050919050565b6000612b9e602f8361316f565b9150612ba9826138af565b604082019050919050565b6000612bc160218361316f565b9150612bcc826138fe565b604082019050919050565b6000612be460318361316f565b9150612bef8261394d565b604082019050919050565b6000612c0760138361316f565b9150612c128261399c565b602082019050919050565b6000612c2a600f8361316f565b9150612c35826139c5565b602082019050919050565b600060a083016000830151612c586000860182612806565b506020830151612c6b6020860182612cbd565b5060408301518482036040860152612c8382826128e1565b9150506060830151612c986060860182612cbd565b5060808301518482036080860152612cb082826128e1565b9150508091505092915050565b612cc6816132b0565b82525050565b612cd5816132b0565b82525050565b6000612ce78284612953565b915081905092915050565b6000612cfe8285612953565b9150612d0a8284612953565b91508190509392505050565b6000602082019050612d2b6000830184612815565b92915050565b6000608082019050612d466000830187612815565b612d536020830186612815565b612d606040830185612ccc565b8181036060830152612d7281846128a8565b905095945050505050565b60006020820190508181036000830152612d978184612824565b905092915050565b6000602082019050612db46000830184612899565b92915050565b60006020820190508181036000830152612dd4818461291a565b905092915050565b60006020820190508181036000830152612df581612984565b9050919050565b60006020820190508181036000830152612e15816129a7565b9050919050565b60006020820190508181036000830152612e35816129ca565b9050919050565b60006020820190508181036000830152612e55816129ed565b9050919050565b60006020820190508181036000830152612e7581612a10565b9050919050565b60006020820190508181036000830152612e9581612a33565b9050919050565b60006020820190508181036000830152612eb581612a56565b9050919050565b60006020820190508181036000830152612ed581612a79565b9050919050565b60006020820190508181036000830152612ef581612a9c565b9050919050565b60006020820190508181036000830152612f1581612abf565b9050919050565b60006020820190508181036000830152612f3581612ae2565b9050919050565b60006020820190508181036000830152612f5581612b05565b9050919050565b60006020820190508181036000830152612f7581612b28565b9050919050565b60006020820190508181036000830152612f9581612b4b565b9050919050565b60006020820190508181036000830152612fb581612b6e565b9050919050565b60006020820190508181036000830152612fd581612b91565b9050919050565b60006020820190508181036000830152612ff581612bb4565b9050919050565b6000602082019050818103600083015261301581612bd7565b9050919050565b6000602082019050818103600083015261303581612bfa565b9050919050565b6000602082019050818103600083015261305581612c1d565b9050919050565b60006020820190506130716000830184612ccc565b92915050565b6000613081613092565b905061308d828261332e565b919050565b6000604051905090565b600067ffffffffffffffff8211156130b7576130b6613466565b5b6130c082613495565b9050602081019050919050565b600067ffffffffffffffff8211156130e8576130e7613466565b5b6130f182613495565b9050602081019050919050565b6000819050602082019050919050565b600081519050919050565b600081519050919050565b600081519050919050565b6000602082019050919050565b600082825260208201905092915050565b600082825260208201905092915050565b600082825260208201905092915050565b600082825260208201905092915050565b600081905092915050565b6000613196826132b0565b91506131a1836132b0565b9250827fffffffffffffffffffffffffffffffffffffffffffffffffffffffffffffffff038211156131d6576131d56133d9565b5b828201905092915050565b60006131ec826132b0565b91506131f7836132b0565b92508261320757613206613408565b5b828204905092915050565b600061321d826132b0565b9150613228836132b0565b92508282101561323b5761323a6133d9565b5b828203905092915050565b600061325182613290565b9050919050565b60008115159050919050565b60007fffffffff0000000000000000000000000000000000000000000000000000000082169050919050565b600073ffffffffffffffffffffffffffffffffffffffff82169050919050565b6000819050919050565b82818337600083830152505050565b60005b838110156132e75780820151818401526020810190506132cc565b838111156132f6576000848401525b50505050565b6000600282049050600182168061331457607f821691505b6020821081141561332857613327613437565b5b50919050565b61333782613495565b810181811067ffffffffffffffff8211171561335657613355613466565b5b80604052505050565b600061336a826132b0565b91507fffffffffffffffffffffffffffffffffffffffffffffffffffffffffffffffff82141561339d5761339c6133d9565b5b600182019050919050565b60006133b3826132b0565b91506133be836132b0565b9250826133ce576133cd613408565b5b828206905092915050565b7f4e487b7100000000000000000000000000000000000000000000000000000000600052601160045260246000fd5b7f4e487b7100000000000000000000000000000000000000000000000000000000600052601260045260246000fd5b7f4e487b7100000000000000000000000000000000000000000000000000000000600052602260045260246000fd5b7f4e487b7100000000000000000000000000000000000000000000000000000000600052604160045260246000fd5b6000601f19601f8301169050919050565b7f4552433732313a207472616e7366657220746f206e6f6e20455243373231526560008201527f63656976657220696d706c656d656e7465720000000000000000000000000000602082015250565b7f4f776e61626c653a206e6577206f776e657220697320746865207a65726f206160008201527f6464726573730000000000000000000000000000000000000000000000000000602082015250565b7f4552433732313a207472616e736665722066726f6d20696e636f72726563742060008201527f6f776e6572000000000000000000000000000000000000000000000000000000602082015250565b7f4552433732313a20746f6b656e20616c7265616479206d696e74656400000000600082015250565b7f4552433732313a207472616e7366657220746f20746865207a65726f2061646460008201527f7265737300000000000000000000000000000000000000000000000000000000602082015250565b7f4552433732313a20617070726f766520746f2063616c6c657200000000000000600082015250565b7f4552433732313a206f70657261746f7220717565727920666f72206e6f6e657860008201527f697374656e7420746f6b656e0000000000000000000000000000000000000000602082015250565b7f4552433732313a20617070726f76652063616c6c6572206973206e6f74206f7760008201527f6e6572206e6f7220617070726f76656420666f7220616c6c0000000000000000602082015250565b7f4552433732313a2062616c616e636520717565727920666f7220746865207a6560008201527f726f206164647265737300000000000000000000000000000000000000000000602082015250565b7f4552433732313a206f776e657220717565727920666f72206e6f6e657869737460008201527f656e7420746f6b656e0000000000000000000000000000000000000000000000602082015250565b7f45524337323155524953746f726167653a2055524920736574206f66206e6f6e60008201527f6578697374656e7420746f6b656e000000000000000000000000000000000000602082015250565b7f4552433732313a206d696e7420746f20746865207a65726f2061646472657373600082015250565b7f45524337323155524953746f726167653a2055524920717565727920666f722060008201527f6e6f6e6578697374656e7420746f6b656e000000000000000000000000000000602082015250565b7f4552433732313a20617070726f76656420717565727920666f72206e6f6e657860008201527f697374656e7420746f6b656e0000000000000000000000000000000000000000602082015250565b7f4f776e61626c653a2063616c6c6572206973206e6f7420746865206f776e6572600082015250565b7f4552433732314d657461646174613a2055524920717565727920666f72206e6f60008201527f6e6578697374656e7420746f6b656e0000000000000000000000000000000000602082015250565b7f4552433732313a20617070726f76616c20746f2063757272656e74206f776e6560008201527f7200000000000000000000000000000000000000000000000000000000000000602082015250565b7f4552433732313a207472616e736665722063616c6c6572206973206e6f74206f60008201527f776e6572206e6f7220617070726f766564000000000000000000000000000000602082015250565b7f4e465420616c7265616479206d696e7465642100000000000000000000000000600082015250565b7f4e65656420746f20706179207570210000000000000000000000000000000000600082015250565b6139f781613246565b8114613a0257600080fd5b50565b613a0e81613258565b8114613a1957600080fd5b50565b613a2581613264565b8114613a3057600080fd5b50565b613a3c816132b0565b8114613a4757600080fd5b5056fea2646970667358221220d721ec36ad30fb28324abd2e020d4e8eacfc7a2aa319aac00531883c0da278a264736f6c63430008040033",
  "linkReferences": {},
  "deployedLinkReferences": {}
}